S00D000044413554332E73726563D6
S11300000C9434000C9446000C9446000C94460066
S11300100C9446000C9446000C9446000C94460044
S11300200C9446000C9446000C9446000C94460034
S11300300C9446000C9446000C9446000C94460024
S11300400C9446000C9446000C9446000C94460014
S11300500C9446000C9465000C9446000C944600E5
S11300600C9446000C94460011241FBECFEFD8E038
S1130070DEBFCDBF21E0A0E0B1E001C01D92A230FF
S1130080B207E1F70E9496000C949D000C940000C6
S1130090ECE7F0E0808180648083EAE7F0E080812F
S11300A08F6E808310927B00E0E8F0E080818268AC
S11300B08083E1E8F0E080818A61808380E29EE4CD
S11300C0909387008093860008951F920F920FB635
S11300D00F9211242F933F938F939F9380917800D5
S11300E09091790090930101809300018091000127
S11300F0909101019C01220F331F820F931F82589C
S11301009B4F909301018093000180910001909195
S1130110010190938900809388009F918F913F9172
S11301202F910F900FBE0F901F90189517B88FEF57
S111013084B90E9448007894FFCFF894FFCF62
S9030000FC
