:100000000C9434000C9446000C9446000C9446006A
:100010000C9446000C9446000C9446000C94460048
:100020000C9446000C9446000C9446000C94460038
:100030000C9446000C9446000C9446000C94460028
:100040000C9446000C9446000C9446000C94460018
:100050000C9446000C945B000C9446000C944600F3
:100060000C9446000C94460011241FBECFEFD8E03C
:10007000DEBFCDBF21E0A0E0B1E001C01D92A23003
:10008000B207E1F70E9488000C948F000C940000E6
:10009000ECE7F0E0808180648083EAE7F0E0808133
:1000A0008F6E808310927B0084B5836884BD85B594
:1000B000816085BD08951F920F920FB60F92112493
:1000C0008F939F9380917800909179009093010194
:1000D0008093000180910001909101019695879590
:1000E000969587959093010180930001809100017E
:1000F0009091010187BD8FE19EE40197F1F700C067
:1001000000009F918F910F900FBE0F901F90189538
:1001100017B88FEF8AB90E9448007894FFCFF894FF
:02012000FFCF0F
:00000001FF
