S00D000044413554322E73726563D7
S11300000C9434000C9446000C9446000C94460066
S11300100C9446000C9446000C9446000C94460044
S11300200C9446000C9446000C9446000C94460034
S11300300C9446000C9446000C9446000C94460024
S11300400C9446000C9446000C9446000C94460014
S11300500C9446000C9461000C9446000C944600E9
S11300600C9446000C94460011241FBECFEFD8E038
S1130070DEBFCDBF21E0A0E0B1E001C01D92A230FF
S1130080B207E1F70E94AB000C94B2000C9400009C
S11300901816190644F4EFECF7E03197F1F700C0B5
S11300A000000197C1F70895ECE7F0E080818064D7
S11300B08083EAE7F0E080818F6E808310927B007A
S11300C008951F920F920FB60F9211242F933F930E
S11300D04F935F936F937F938F939F93AF93BF934C
S11300E0EF93FF93809178009091790090930101B0
S11300F08093000186E685B9809100019091010109
S11301000E9448008CEC85B9809100019091010116
S11301100E94480089E985B980910001909101010C
S11301200E94480083E385B9809100019091010108
S11301300E944800FF91EF91BF91AF919F918F91E1
S11301407F916F915F914F913F912F910F900FBECF
S11301500F901F90189517B88FEF84B90E94540020
S10B01607894FFCFF894FFCF5F
S9030000FC
