:100000000C9434000C943E000C943E000C943E0082
:100010000C943E000C943E000C943E000C943E0068
:100020000C943E000C943E000C943E000C943E0058
:100030000C943E000C943E000C943E000C943E0048
:100040000C943E000C943E000C943E000C943E0038
:100050000C943E000C9440000C943E000C943E0026
:100060000C943E000C943E0011241FBECFEFD8E04C
:10007000DEBFCDBF0E946A000C9499000C94000072
:100080001F920F920FB60F9211248F93EF93FF934D
:10009000E0ECF0E0808185FFFDCF809179008093D6
:1000A000C600FF91EF918F910F900FBE0F901F90A0
:1000B00018958CE791EE90938500809384001092C0
:1000C000800085E080938100B09BFECF109281007C
:1000D000B09A08951092C50083E38093C400E1ECC8
:1000E000F0E0808188608083808180648083E2EC9E
:1000F000F0E0808186608083ECE7F0E080818860BA
:100100008083808180628083EAE7F0E0808187607D
:10011000808380818062808386E080937B00808101
:100120008068808380818860808378940E945900F1
:06013000FDCFF894FFCFA3
:00000001FF
