:100000000C9434000C943E000C943E000C943E0082
:100010000C943E000C943E000C943E000C943E0068
:100020000C943E000C943E000C943E000C943E0058
:100030000C943E000C943E000C943E000C943E0048
:100040000C943E000C943E000C943E000C943E0038
:100050000C943E000C943E000C943E000C943E0028
:100060000C943E000C943E0011241FBECFEFD8E04C
:10007000DEBFCDBF0E9455000C945B000C940000C5
:100080008FE598EF90938500809384001092800014
:1000900085E080938100B09BFECF10928100B09AE2
:1000A00098B181E0892788B9089581E087B918B8A7
:0A00B0000E944000FDCFF894FFCF3E
:00000001FF
