:100000000C9434000C943E000C943E000C943E0082
:100010000C943E000C943E000C943E000C943E0068
:100020000C943E000C943E000C943E000C943E0058
:100030000C943E000C943E000C943E000C943E0048
:100040000C943E000C943E000C943E000C943E0038
:100050000C943E000C943E000C943E000C943E0028
:100060000C943E000C943E0011241FBECFEFD8E04C
:10007000DEBFCDBF0E9455000C9465000C940000BB
:100080008FE598EF90938500809384001092800014
:1000900085E080938100B09BFECF10928100B09AE2
:1000A00098B181E0892788B908958FEF84B915B890
:1000B00081E387B918B81AB816BC14BC87E085BDAF
:0E00C0000E94400086B585B9FBCFF894FFCFB3
:00000001FF
