S00D000044413654312E73726563D7
S11300000C9434000C9451000C9451000C94510045
S11300100C9451000C9451000C9451000C94510018
S11300200C9451000C9451000C9451000C94510008
S11300300C9451000C9451000C9451000C945100F8
S11300400C9451000C9451000C9451000C945100E8
S11300500C9451000C94EF000C9451000C9451003A
S11300600C9451000C94510011241FBECFEFD8E022
S1130070DEBFCDBF11E0A0E0B1E0E4EAF5E002C0EC
S113008005900D92A431B107D9F721E0A4E1B1E0C4
S113009001C01D92A631B207E1F70E946E010C94D3
S11300A0D0020C940000ECE7F0E08081806480834F
S11300B0EAE7F0E080818F6E808310927B000895E0
S11300C08BB9289829982A9A2FE789EA93E0215036
S11300D080409040E1F700C000002A982FEF80E7AD
S11300E092E0215080409040E1F700C00000089564
S11300F08BB9289A29982A9A2FE789EA93E0215004
S113010080409040E1F700C000002A982FEF80E77C
S113011092E0215080409040E1F700C00000089533
S11301208FEF8AB984B92A982FEF83ED90E3215099
S113013080409040E1F700C0000088E30E94600026
S11301408EE00E94600081E00E9460002FEF83ED4A
S113015090E3215080409040E1F700C0000086E029
S11301600E9460000895CF93DF9300D000D0CDB7F4
S1130170DEB790E8998390EC9A8394E99B8394ED9D
S11301809C838150FE01E60FF11D9081890F0E942E
S113019060002FEF80E792E0215080409040E1F72B
S11301A000C000000F900F900F900F90DF91CF913F
S11301B008950F931F93CF93FC018081882359F0F6
S11301C08F01C0E00E947800CF5FF801EC0FF11DB1
S11301D080818111F7CFCF911F910F9108951F92C4
S11301E00F920FB60F9211242F933F934F935F9367
S11301F06F937F938F939F93AF93BF93EF93FF93EB
S11302008091780090917900909315018093140166
S1130210609114017091150180E090E00E94C60184
S113022020E030E04AEF5EE30E942C020E94970136
S113023070931501609314012091140130911501FC
S1130240E0E0F1E0ADECBCEC0E94C102969587952C
S11302509695879596958795805D80834091140146
S1130260509115019A010E94C10296958795969521
S11302708795969587959C01220F331F880F991FA8
S1130280880F991F880F991F820F931F481B590BC2
S1130290405D418362E070E085E090E00E94B3003D
S11302A080E091E00E94D9002FEF89E698E1215087
S11302B080409040E1F700C00000FF91EF91BF91B2
S11302C0AF919F918F917F916F915F914F913F91EA
S11302D02F910F900FBE0F901F9018950E949000C1
S11302E061E081E00E94B30083E091E00E94D900C4
S11302F062E081E00E94B3008CE091E00E94D900AA
S113030062E087E00E94B30080E090E02FEDFC0102
S113031020830E94D90062E088E00E94B30081E15A
S113032091E00E94D9000E9453007894FFCF0E946C
S11303300B0288F09F5798F0B92F9927B751B0F066
S1130340E1F0660F771F881F991F1AF0BA95C9F755
S113035014C0B13091F00E942502B1E008950C94CC
S11303602502672F782F8827B85F39F0B93FCCF37F
S1130370869577956795B395D9F73EF490958095D2
S1130380709561957F4F8F4F9F4F0895E89409C0F2
S113039097FB3EF490958095709561957F4F8F4FB4
S11303A09F4F9923A9F0F92F96E9BB279395F695CA
S11303B0879577956795B795F111F8CFFAF4BB0F48
S11303C011F460FF1BC06F5F7F4F8F4F9F4F16C0AC
S11303D0882311F096E911C0772321F09EE8872F36
S11303E0762F05C0662371F096E8862F70E060E0F2
S11303F02AF09A95660F771F881FDAF7880F96956B
S1130400879597F9089557FD9058440F551F59F053
S11304105F3F71F04795880F97FB991F61F09F3FED
S113042079F087950895121613061406551FF2CF16
S11304304695F1DF08C0161617061806991FF1CF66
S113044086957105610508940895E894BB2766278D
S11304507727CB0197F908950E943F020C94B002CC
S11304600E94A20238F00E94A90220F0952311F004
S11304700C9499020C949F0211240C9426020E945D
S1130480030270F3959FC1F3950F50E0551F629FCF
S1130490F001729FBB27F00DB11D639FAA27F00DD9
S11304A0B11DAA1F649F6627B00DA11D661F829F00
S11304B02227B00DA11D621F739FB00DA11D621FE5
S11304C0839FA00D611D221F749F3327A00D611D02
S11304D0231F849F600D211D822F762F6A2F1124E4
S11304E09F5750409AF0F1F088234AF0EE0FFF1F17
S11304F0BB1F661F771F881F91505040A9F79E3F6E
S1130500510580F00C9499020C9426025F3FE4F3A9
S1130510983ED4F3869577956795B795F795E795C3
S11305209F5FC1F7FE2B880F911D9695879597F9CC
S1130530089597F99F6780E870E060E008959FEF61
S113054080EC089500240A94161617061806090666
S1130550089500240A941216130614060506089535
S1130560092E0394000C11F4882352F0BB0F40F4BD
S1130570BF2B11F460FF04C06F5F7F4F8F4F9F4FFD
S11305800895A29FB001B39FC001A39F700D811D68
S11305901124911DB29F700D811D1124911D089588
S10705A0F894FFCFF9
S11305A430300054656D7065726174007572653A1B
S10705B400460000F9
S9030000FC
