S00E0000435F436F64652E73726563F9
S11300000C9434000C9455000C9467000C943E003E
S11300100C943E000C943E000C943E000C943E0064
S11300200C943E000C943E000C943E000C943E0054
S11300300C943E000C943E000C943E000C943E0044
S11300400C943E000C943E000C943E000C943E0034
S11300500C943E000C943E000C943E000C943E0024
S11300600C943E000C943E0011241FBECFEFD8E048
S1130070DEBFCDBF0E9479000C94AD000C9400004B
S11300808FE598EF90938500809384001092800010
S113009085E080938100B09BFECF10928100B09ADE
S11300A098B181E0892788B908951F920F920FB6FD
S11300B00F9211248F939F9398B180E1892788B977
S11300C09F918F910F900FBE0F901F9018951F92C4
S11300D00F920FB60F9211248F939F9398B180E2E1
S11300E0892788B99F918F910F900FBE0F901F9011
S11300F018958FEF84B915B881E387B918B88CE0E7
S11301008AB916BC14BC87E085BD8FE08093690072
S113011083E08DBB7894D0E0C0E06894FF24F2F8CB
S113012000E018E00E94400086B585B9409B02C0FB
S1130130CF5FDF5FC53039F48BB18F258BB98BB1BD
S11301408F258BB9C02FDA3069F78BB181278BB932
S11101508BB181278BB9D02FE5CFF894FFCF68
S9030000FC
