S00D000044413454312E73726563D9
S11300000C9434000C943E000C943E000C943E007E
S11300100C943E000C943E000C943E000C943E0064
S11300200C943E000C943E000C943E000C943E0054
S11300300C943E000C943E000C943E000C943E0044
S11300400C943E000C943E000C943E000C943E0034
S11300500C943E000C943E000C943E000C943E0024
S11300600C943E000C943E0011241FBECFEFD8E048
S1130070DEBFCDBF0E944E000C94C8000C9400005B
S113008096958795882349F08150EFECF7E03197F6
S1130090F1F700C000008111F7CF0895CF93DF93EB
S11300A000D000D0CDB7DEB78FEF84B98AB991E222
S11300B094BD89E085BD23E22093800021E1209353
S11300C081009093B0008093B1000F2EFAE8CF2EF8
S11300D0D12CF02D04EB10E00F2EF9E18F2E912C92
S11300E0F02D312C212C29821A8287BC0F2EF9E1A4
S11300F0EF2EF02DF32CE8E8F0E0F182E082E9E85D
S1130100F0E0F082F9E1FB833C82412C542C2B81FA
S1130110E3EBF0E02083A22CB12CA8BC89819A8166
S1130120642CF60191838083752CF80170828B8195
S11301309C810E9440007394872D90E02B813C8128
S11301402817390790F76394862D90E0E816F9068E
S113015040F73FEFA31AB30A8A149B04F0F68B818D
S11301609C8149969C838B838A3F910581F699E112
S1130170E90EF11CEAEFEE16F10409F0BCCFF9E147
S11301808F0E911C2AEF8216910409F0AECFA4CFF2
S1070190F894FFCF0D
S9030000FC
