S00D000046696E616C2E737265632D
S11300000C9434000C9451000C9451000C94510045
S11300100C9451000C9451000C9451000C94510018
S11300200C9451000C9451000C9451000C94510008
S11300300C9451000C9451000C9451000C945100F8
S11300400C9451000C9451000C9451000C945100E8
S11300500C9451000C9451000C9451000C945100D8
S11300600C9451000C94510011241FBECFEFD8E022
S1130070DEBFCDBF12E0A0E0B1E0EAE2F9E002C0E9
S113008005900D92AC38B107D9F722E0ACE8B2E0A4
S113009001C01D92AD3CB207E1F70E94DB000C9455
S11300A093040C940000EF92FF920F931F93CF934D
S11300B0DF938C017B0110928C020E94CC00C92F2B
S11300C090E0D92FCD2BC9F7E0918C0291E09E0FDF
S11300D090938C02F0E0E357FD4F8083E92FF0E02A
S11300E0E357FD4F10829F3311F410928C020115D7
S11300F0110539F0B8018DE892E00E949401892B32
S113010061F4E114F104C9F2B7018DE892E00E94B0
S11301109401892B91F281E001C080E0DF91CF91BD
S11301201F910F91FF90EF900895CF93C62F0E94D7
S1130130BD00CC2339F060E070E086E091E00E94DD
S1130140530001C080E0CF910895E1ECF0E080819C
S113015088618083E2ECF0E080818E60808310927D
S1130160C50089E18093C4000895E0ECF0E090813B
S113017095FFFDCF8093C6000895CF93DF93EC01E4
S11301808881882331F021960E94B50089918111DC
S1130190FBCFDF91CF910895E0ECF0E080818823DC
S11301A0ECF78091C60090E008951092B90088E8B9
S11301B08093B8000895CF93DF93CDB7DEB7C052D4
S11301C0D1400FB6F894DEBF0FBECDBF8FEF86B916
S11301D00E94D5000E94A50010E00F2EF0E0CF2E63
S11301E0F1E0DF2EF02D0F2EFFE88F2EF1E09F2E91
S11301F0F02DCE0101967C010F2EFDE5AF2EF2E02D
S1130200BF2EF02D6894662465F82E0191E0490E06
S1130210591E61E08BE091E00E94950060E070E07F
S113022084E191E00E9453008111F8CF61E080E203
S113023091E00E94950060E087E291E00E949500C1
S113024060E070E083E391E00E945300882319F09A
S11302501123F9F201C011E061E084E491E00E940D
S1130260950061E083E591E00E94950060E081E6FD
S113027091E00E94950060E070E087E891E00E94C0
S113028053008111C6CFF60101900020E9F7DF92F7
S1130290CF92CF01875F90409F938F939F928F92CD
S11302A081E08F931F92FF92EF920E94AE01C050A3
S11302B0DF4F1882C050D140F70101900020E9F7C8
S11302C03197EE19FF09FF93EF93BF92AF921F92FC
S11302D06F925F924F920E94AE01F201178E60E01E
S11302E0C2010E94950060E070E08DE692E00E94F9
S11302F0530060E0C7010E94950060E070E08FE663
S113030092E00E94530060E087E792E00E9495002B
S113031065E872E084E792E00E9453000FB6F89417
S1130320DEBF0FBECDBF75CFFB0151915523A9F0A0
S1130330BF01DC014D9145174111E1F759F4CD019D
S11303400190002049F04D9140154111C9F3FB0182
S11303504111EFCF81E090E001970895AEE0B0E065
S1130360E4EBF1E00C946A040D891E898F89988D61
S113037026E02C831A83098397FF02C080E090E86B
S113038001979E838D83AE01455E5F4F698D7A8DA3
S1130390CE0101960E94DE014D815E8157FD0AC0A7
S11303A02F813885421753070CF49A01F801E20FA4
S11303B0F31F10822E96E4E00C948604ACE0B0E0C7
S11303C0E4EEF1E00C945C047C016B018A01FC0115
S11303D017821682838181FFBDC1CE0101964C0133
S11303E0F7019381F60193FD859193FF81916F014C
S11303F0882309F4ABC1853239F493FD859193FFC9
S113040081916F01853229F4B70190E00E94C603FF
S1130410E7CF512C312C20E02032A0F48B3269F04C
S113042030F4803259F0833269F420612CC08D326B
S113043039F0803339F4216026C02260246023C05F
S1130440286021C027FD27C030ED380F3A3078F4FA
S113045026FF06C0FAE05F9E300D1124532E13C010
S11304608AE0389E300D1124332E20620CC08E3267
S113047021F426FD6BC1206406C08C3611F420687B
S113048002C0883641F4F60193FD859193FF819172
S11304906F018111C1CF982F9F7D9554933028F41B
S11304A00C5F1F4FFFE3F9830DC0833631F08337B0
S11304B071F0833509F05BC022C0F8018081898323
S11304C00E5F1F4F44244394512C540115C038012E
S11304D0F2E06F0E711CF801A080B18026FF03C00A
S11304E0652D70E002C06FEF7FEFC5012C870E947D
S11304F0BB032C0183012C852F77222E17C03801D2
S1130500F2E06F0E711CF801A080B18026FF03C0D9
S1130510652D70E002C06FEF7FEFC5012C870E944C
S1130520B0032C012C852068222E830123FC1BC0E0
S1130530832D90E048165906B0F4B70180E290E0AC
S11305400E94C6033A94F4CFF50127FC859127FE57
S113055081915F01B70190E00E94C60331103A9483
S1130560F1E04F1A51084114510471F7E5C0843683
S113057011F0893639F5F80127FF07C060817181D0
S1130580828193810C5F1F4F08C060817181072EA7
S1130590000C880B990B0E5F1F4F2F76722E97FF5E
S11305A009C090958095709561957F4F8F4F9F4FAF
S11305B02068722E2AE030E0A4010E94FE03A82ED7
S11305C0A81844C0853729F42F7EB22E2AE030E0E3
S11305D025C0F22FF97FBF2E8F36C1F018F488356D
S11305E079F0B4C0803719F0883721F0AFC02F2FCD
S11305F02061B22EB4FE0DC08B2D8460B82E09C0CC
S113060024FF0AC09F2F9660B92E06C028E030E070
S113061005C020E130E002C020E132E0F801B7FE7D
S113062007C060817181828193810C5F1F4F06C076
S11306306081718180E090E00E5F1F4FA4010E94F1
S1130640FE03A82EA818FB2DFF777F2E76FE0BC085
S1130650372D3E7FA51450F474FE0AC072FC08C006
S1130660372D3E7E05C0BA2C372D03C0BA2C01C0ED
S1130670B52C34FF0DC0FE01EA0DF11D80818033DD
S113068011F4397E09C032FF06C0B394B39404C098
S1130690832F867809F0B39433FD13C030FF06C06E
S11306A05A2CB31418F4530C5B18B32CB31468F419
S11306B0B70180E290E03C870E94C603B3943C8576
S11306C0F5CFB31410F43B1801C0312C34FF12C021
S11306D0B70180E390E03C870E94C6033C8532FF6B
S11306E017C031FD03C088E790E002C088E590E0C0
S11306F0B7010CC0832F867859F031FF02C08BE21A
S113070001C080E237FD8DE2B70190E00E94C6038C
S1130710A51438F4B70180E390E00E94C6035A940C
S1130720F7CFAA94F401EA0DF11D8081B70190E09E
S11307300E94C603A110F5CF332009F451CEB701AE
S113074080E290E00E94C6033A94F6CFF7018681D6
S1130750978102C08FEF9FEF2C96E2E10C9478040E
S1130760FC010590615070400110D8F78095909578
S11307708E0F9F1F0895FC0161507040019001107D
S1130780D8F7809590958E0F9F1F08950F931F9310
S1130790CF93DF93FB01238121FD03C08FEF9FEFF4
S11307A028C022FF16C04681578124813581421713
S11307B0530744F4A081B1819D012F5F3F4F3183E2
S11307C020838C93268137812F5F3F4F3783268385
S11307D010C0EB01092F182F0084F185E02D099535
S11307E0892BE1F68E819F8101969F838E83812FD1
S11307F0902FDF91CF911F910F910895FA01AA27AD
S1130800283051F1203181F1E8946F936E7F6E5F4F
S11308107F4F8F4F9F4FAF4FB1E03ED0B4E03CD0FD
S1130820670F781F891F9A1FA11D680F791F8A1FE0
S1130830911DA11D6A0F711D811D911DA11D20D047
S113084009F468943F912AE0269F11243019305D01
S11308503193DEF6CF010895462F4770405D4193F2
S1130860B3E00FD0C9F7F6CF462F4F70405D4A333F
S113087018F0495D31FD4052419302D0A9F7EACF07
S1130880B4E0A6959795879577956795BA95C9F736
S113089000976105710508959B01AC010A2E069429
S11308A05795479537952795BA95C9F7620F731FE2
S11308B0841F951FA01D08952F923F924F925F921F
S11308C06F927F928F929F92AF92BF92CF92DF925C
S11308D0EF92FF920F931F93CF93DF93CDB7DEB7C1
S11308E0CA1BDB0B0FB6F894DEBF0FBECDBF099455
S11308F02A88398848885F846E847D848C849B84AC
S1130900AA84B984C884DF80EE80FD800C811B81B9
S1130910AA81B981CE0FD11D0FB6F894DEBF0FBEE8
S10D0920CDBFED010895F894FFCF58
S113092A3000000000004F4B0D0A0041542B525373
S113093A540D0A005749464920474F54204950004C
S113094A415445300D0A0041542B43574A41503F04
S113095A0D0A004D61685F4E65775F496E74657272
S113096A6E65740041542B4349504D4F44453D3004
S113097A0D0A0041542B4349504D55583D300D0A38
S113098A0041542B43495053544152543D22544339
S113099A50222C2235302E32332E3132342E363830
S11309AA222C38300D0A00434F4E4E454354005012
S11309BA4F5354202F6170692F76312E362F76616A
S11309CA726961626C65732F3537326330666639D2
S11309DA373632353432306533333736623134633D
S11309EA2F76616C75657320485454502F312E311B
S11309FA0D0A582D417574682D546F6B656E3A2033
S1130A0A51554171305878337A504150787078444E
S1130A1A62364A577A4C38763632544A74630D0A27
S1130A2A486F73743A207468696E67732E756269C5
S1130A3A646F74732E636F6D0D0A436F6E74656E03
S1130A4A742D547970653A206170706C69636174AD
S1130A5A696F6E2F6A736F6E0D0A436F6E74656EDB
S1130A6A742D4C656E6774683A2025640D0A0D0A64
S1130A7A7B2276616C7565223A25737D0041542B7D
S1130A8A43495053454E443D25640D0A003E0053E4
S1130A9A454E44204F4B0041542B434950434C4F3D
S10F0AAA53450D0A004552524F52000003
S9030000FC
