S00E0000435F436F64652E73726563F9
S11300000C9434000C943E000C943E000C943E007E
S11300100C943E000C943E000C943E000C943E0064
S11300200C943E000C943E000C943E000C943E0054
S11300300C943E000C943E000C943E000C943E0044
S11300400C943E000C943E000C943E000C943E0034
S11300500C943E000C943E000C943E000C943E0024
S11300600C943E000C943E0011241FBECFEFD8E048
S1130070DEBFCDBF0E9455000C947C000C940000A0
S11300808FE598EF90938500809384001092800010
S113009085E080938100B09BFECF10928100B09ADE
S11300A098B181E0892788B908958FEF84B915B88C
S11300B081E387B918B81AB816BC14BC87E085BDAB
S11300C0D0E0C0E06894FF24F4F810E000E20E945D
S11300D0400086B585B9409B02C0CF5FDF5FC53065
S11300E021F488B18F2588B9C12FDA3081F788B11E
S10F00F0802788B9D12FEBCFF894FFCF04
S9030000FC
